:020000040000fa
:080000000002040000000000f2
:020000040000fa
:040008006c04000084
:020000040000fa
:04000c006c04000080
:020000040000fa
:040010006c0400007c
:020000040000fa
:040014006c04000078
:020000040000fa
:040018006c04000074
:020000040000fa
:04001c006c04000070
:020000040000fa
:040020006c0400006c
:020000040000fa
:040024006c04000068
:020000040000fa
:04002800540300007d
:020000040000fa
:04002c00a00300002d
:020000040000fa
:040030006c0400005c
:020000040000fa
:040034006c04000058
:020000040000fa
:040038006c04000054
:020000040000fa
:04003c006c04000050
:020000040000fa
:040040006c0400004c
:020000040000fa
:040044006c04000048
:020000040000fa
:040048006c04000044
:020000040000fa
:04004c006c04000040
:020000040000fa
:040050006c0400003c
:020000040000fa
:040054006c04000038
:020000040000fa
:040058006c04000034
:020000040000fa
:04005c006c04000030
:020000040000fa
:040060006c0400002c
:020000040000fa
:040064008203000013
:020000040000fa
:040068006c04000024
:020000040000fa
:04006c006c04000020
:020000040000fa
:040070006c0400001c
:020000040000fa
:040074006c04000018
:020000040000fa
:04007800640300001d
:020000040000fa
:04007c006c04000010
:020000040000fa
:040080006c0400000c
:020000040000fa
:040084006c04000008
:020000040000fa
:040088006c04000004
:020000040000fa
:04008c006c04000000
:020000040000fa
:040090006c040000fc
:020000040000fa
:040094006c040000f8
:020000040000fa
:040098006c040000f4
:020000040000fa
:04009c006c040000f0
:020000040000fa
:0400a0006c040000ec
:020000040000fa
:0400a4006c040000e8
:020000040000fa
:0400a8006c040000e4
:020000040000fa
:0400ac006c040000e0
:020000040000fa
:0400b0006c040000dc
:020000040000fa
:0400b4006c040000d8
:020000040000fa
:0400b8006c040000d4
:020000040000fa
:0400bc006c040000d0
:020000040000fa
:0400c0006c040000cc
:020000040000fa
:0400c4006c040000c8
:020000040000fa
:0400c8006c040000c4
:020000040000fa
:0400cc006c040000c0
:020000040000fa
:0400d0006c040000bc
:020000040000fa
:0400d4006c040000b8
:020000040000fa
:0400d8006c040000b4
:020000040000fa
:0400dc006c040000b0
:020000040000fa
:0400e0006c040000ac
:020000040000fa
:0400e4006c040000a8
:020000040000fa
:0400e8006c040000a4
:020000040000fa
:0400ec006c040000a0
:020000040000fa
:0400f0006c0400009c
:020000040000fa
:0400f4006c04000098
:020000040000fa
:0400f8006c04000094
:020000040000fa
:0400fc006c04000090
:020000040000fa
:040100006c0400008b
:020000040000fa
:040104006c04000087
:020000040000fa
:040108006c04000083
:020000040000fa
:04010c006c0400007f
:020000040000fa
:040110006c0400007b
:020000040000fa
:040114006c04000077
:020000040000fa
:040118006c04000073
:020000040000fa
:04011c006c0400006f
:020000040000fa
:040120006c0400006b
:020000040000fa
:040124006c04000067
:020000040000fa
:040128006c04000063
:020000040000fa
:04012c006c0400005f
:020000040000fa
:040130006c0400005b
:020000040000fa
:040134006c04000057
:020000040000fa
:040138006c04000053
:020000040000fa
:04013c006c0400004f
:020000040000fa
:040140006c0400004b
:020000040000fa
:040144006c04000047
:020000040000fa
:040148006c04000043
:020000040000fa
:04014c006c0400003f
:020000040000fa
:040150006c0400003b
:020000040000fa
:040154006c04000037
:020000040000fa
:040158006c04000033
:020000040000fa
:04015c006c0400002f
:020000040000fa
:040160006c0400002b
:020000040000fa
:040164006c04000027
:020000040000fa
:040168006c04000023
:020000040000fa
:04016c006c0400001f
:020000040000fa
:040170006c0400001b
:020000040000fa
:040174006c04000017
:020000040000fa
:040178006c04000013
:020000040000fa
:04017c006c0400000f
:020000040000fa
:040180006c0400000b
:020000040000fa
:040184006c04000007
:020000040000fa
:040188006c04000003
:020000040000fa
:04018c006c040000ff
:020000040000fa
:040190006c040000fb
:020000040000fa
:040194006c040000f7
:020000040000fa
:040198006c040000f3
:020000040000fa
:04019c006c040000ef
:020000040000fa
:0401a0006c040000eb
:020000040000fa
:0401a4006c040000e7
:020000040000fa
:0401a8006c040000e3
:020000040000fa
:0401ac006c040000df
:020000040000fa
:0401b0006c040000db
:020000040000fa
:0401b4006c040000d7
:020000040000fa
:0401b8006c040000d3
:020000040000fa
:0401bc006c040000cf
:020000040000fa
:0401c0006c040000cb
:020000040000fa
:0401c4006c040000c7
:020000040000fa
:0401c8006c040000c3
:020000040000fa
:0401cc006c040000bf
:020000040000fa
:0401d0006c040000bb
:020000040000fa
:0401d4006c040000b7
:020000040000fa
:0401d8006c040000b3
:020000040000fa
:0401dc006c040000af
:020000040000fa
:0401e0006c040000ab
:020000040000fa
:0401e4006c040000a7
:020000040000fa
:0401e8006c040000a3
:020000040000fa
:0401ec006c0400009f
:020000040000fa
:0401f0006c0400009b
:020000040000fa
:0401f4006c04000097
:020000040000fa
:0401f8006c04000093
:020000040000fa
:0401fc006c0400008f
:020000040000fa
:040200006c0400008a
:020000040000fa
:040204006c04000086
:020000040000fa
:040208006c04000082
:020000040000fa
:04020c006c0400007e
:020000040000fa
:040210006c0400007a
:020000040000fa
:040214006c04000076
:020000040000fa
:040218006c04000072
:020000040000fa
:04021c006c0400006e
:020000040000fa
:040220006c0400006a
:020000040000fa
:040224006c04000066
:020000040000fa
:040228006c04000062
:020000040000fa
:04022c006c0400005e
:020000040000fa
:040230006c0400005a
:020000040000fa
:040234006c04000056
:020000040000fa
:040238006c04000052
:020000040000fa
:04023c006c0400004e
:020000040000fa
:040240006c0400004a
:020000040000fa
:040244006c04000046
:020000040000fa
:040248006c04000042
:020000040000fa
:04024c006c0400003e
:020000040000fa
:040250006c0400003a
:020000040000fa
:040254006c04000036
:020000040000fa
:040258006c04000032
:020000040000fa
:04025c006c0400002e
:020000040000fa
:040260006c0400002a
:020000040000fa
:040264006c04000026
:020000040000fa
:040268006c04000022
:020000040000fa
:04026c006c0400001e
:020000040000fa
:040270006c0400001a
:020000040000fa
:040274006c04000016
:020000040000fa
:040278006c04000012
:020000040000fa
:04027c006c0400000e
:020000040000fa
:040280006c0400000a
:020000040000fa
:040284006c04000006
:020000040000fa
:040288006c04000002
:020000040000fa
:04028c006c040000fe
:020000040000fa
:040290006c040000fa
:020000040000fa
:040294006c040000f6
:020000040000fa
:040298006c040000f2
:020000040000fa
:04029c006c040000ee
:020000040000fa
:0402a0006c040000ea
:020000040000fa
:0402a4006c040000e6
:020000040000fa
:0402a8006c040000e2
:020000040000fa
:0402ac006c040000de
:020000040000fa
:0402b0006c040000da
:020000040000fa
:0402b4006c040000d6
:020000040000fa
:0402b8006c040000d2
:020000040000fa
:0402bc006c040000ce
:020000040000fa
:0402c0006c040000ca
:020000040000fa
:0402c4006c040000c6
:020000040000fa
:0402c8006c040000c2
:020000040000fa
:0402cc006c040000be
:020000040000fa
:0402d0006c040000ba
:020000040000fa
:0402d4006c040000b6
:020000040000fa
:0402d8006c040000b2
:020000040000fa
:0402dc006c040000ae
:020000040000fa
:0402e0006c040000aa
:020000040000fa
:0402e4006c040000a6
:020000040000fa
:0402e8006c040000a2
:020000040000fa
:0402ec006c0400009e
:020000040000fa
:0402f0006c0400009a
:020000040000fa
:0402f4006c04000096
:020000040000fa
:0402f8006c04000092
:020000040000fa
:0402fc006c0400008e
:020000040000fa
:040300006c04000089
:020000040000fa
:040304006c04000085
:020000040000fa
:040308006c04000081
:020000040000fa
:04030c006c0400007d
:020000040000fa
:040310006c04000079
:020000040000fa
:040314006c04000075
:020000040000fa
:040318006c04000071
:020000040000fa
:04031c006c0400006d
:020000040000fa
:040320006c04000069
:020000040000fa
:100400004f1522000eff24000e018800000020007e
:100410000000e000020032000001200020028800fd
:10042000140007002e0107000000e00003003a005e
:10043000407221000100200002003700000020006f
:1004400001002000810f70004220ae000f00070065
:10045000000020000000e0004220ae00000002008a
:1004600000000000a0150200000000000040da00bb
:100470000000fe00600020000000e00002003200ea
:10048000002020009001880000000600a1028800e2
:10049000800478000000eb001f003700e284440075
:1004a00054a0b4009905ba00e284440054a0b400fa
:1004b0009906ba00e284440054a0b4000006eb00a0
:1004c000476fde00fd07b200ae018800636ce100fb
:1004d00003003a000ad801000000eb000e003700cc
:1004e000606ce10008003a00004deb000a05e800ee
:1004f000020039003420ec000af0a0008b05e9006e
:10050000f9ff3e00040037006168e100010032009d
:100510000086eb000b00070019c7ba001905ba00e6
:100520000e04e00003003a000a00e000dbff3a009e
:1005300000000600fe07b200ae0288008a047800c0
:10054000f5ff37000cd0a300e20f4d001c0039006e
:1005500089027800354dba000a05e800020039002a
:100560003420ec000af0a0008b05e9000f003200f7
:10057000254dba000a05e800020039003420ec00dd
:100580000af0a0008b05e900080032000c00e00032
:100590000600320015cdba000a05e8000200390055
:1005a0003420ec000af0a0008b05e9008984e80003
:1005b00054a0b4000b00e000e2ff3a000000060087
:1005c0009902ba00055d78008b05e900f7ff32005b
:1005d000c82ade00055d78008b05e900f3ff3200d4
:1005e0000c00e000f1ff320019ddba00eeff370029
:1005f0006100e10001003200100005003200f80047
:100600003400f8000002be00930188003200be00f2
:100610000100e0000700320032037800c733de003b
:10062000a7018800f607b2007f30e1000400320025
:10063000200020003400f9003200f900000006001c
:100640008100e9000500e00003003a000180090094
:1006500032100300edff37000180090032900300e3
:10066000d561ae00e9ff370030002000f1ff370010
:1006700050052000b00e8800a00a2000b00e8800af
:10068000d3e1a8000000060050052000b00e88004d
:10069000a00a2000b00e8800d3e1a90000000600e7
:1006a0000000000000000000801f78000000fa0039
:1006b00010002000608388000008a9000080fa0074
:1006c0004f007800004006003600f800809fbe0012
:1006d000829fbe00849fbe00869fbe000000fa007d
:1006e000330307000288a9000080fa004f03be0010
:1006f0004f02be004f01be004f00be003600f900a1
:10070000004006003600f800809fbe00829fbe00b9
:10071000849fbe00869fbe000000fa0024030700ed
:1007200001e8a9000080fa004f03be004f02be009e
:100730004f01be004f00be003600f9000040060029
:10074000809fbe000000fa00e0818000f1818000ff
:1007500061004000e0804800e0818800f18188006d
:10076000008280001182800061004000e08048002b
:10077000008288001182880091868000508280006b
:10078000808f500008003d00317080009082800012
:100790000100700030708800f1718000a08280003c
:1007a00001007000f07188009186800060828000f6
:1007b000808f500008003d0031708000b0828000c2
:1007c0000100700030708800f1718000c0828000ec
:1007d00001007000f07188009186800070828000b6
:1007e000808f50000c003d0011718000d08280008d
:1007f0000080600010718800f1718000e08280004c
:1008000000806000f0718800d1728000f08280006a
:1008100000806000d0728800918680008082800015
:10082000808f50000c003d0011718000008380001b
:100830000080600010718800f171800010838000da
:1008400000806000f0718800d172800020838000f9
:1008500000806000d0728800908680000000e00078
:1008600016003a003170800000fe2f00008060000a
:1008700030708800f1718000e0ff2f000080600080
:10088000f0718800117180000000250001007000e7
:1008900010718800f07180000050a000f071880095
:1008a000d1728000000c200001007000d07288001e
:1008b000b02484000000e8009086880090868000c4
:1008c0000000e900908688000028a9000080fa0056
:1008d0004f00be00004006000040da000000fe00ad
:1008e000000005006022b800060220000000d000d1
:1008f0008180d2000482d2008582d2000000a00054
:100900000202520083825a000300310002024200b8
:1009100083824a000000a1000603e900f3ff3a00c9
:0409200000000600cd
:020000040000fa
:0c09240000000000803f000032000000d6
:020000040000fa
:100930000000fa000086800060fa880010868000bf
:1009400070fa88003000200070fe880080002000cf
:10095000a0fd88000000eb00609288000000eb0022
:10096000709288000000eb00809288000000eb008d
:10097000909288000000eb00a092880020002000e8
:10098000b09288000000eb00c09288002000200098
:10099000d09288000000eb00e09288002000200048
:1009a000f09288000000eb000093880020002000f7
:1009b000109388000000eb00209388000000eb00fb
:1009c000309388000000eb00409388000000eb00ab
:1009d000509388000000eb00609388002000200006
:1009e000709388000086800080fa8800108680005e
:1009f00090fa880080002000b0fd880030002000c0
:100a000080fe88000000eb00609a88003000200023
:100a1000709a88000000eb00809a88003000200067
:100a2000909a88000000eb00a09a88001000200037
:100a3000b09a88000000eb00c09a880010002000e7
:100a4000d09a88000000eb00e09a88001000200097
:100a5000f09a88000000eb00009b88001000200046
:100a6000109b88000000eb00209b880030002000d5
:100a7000309b88000000eb00409b88003000200085
:100a8000509b880000868000a0fa880010868000b5
:100a9000b0fa8800c0002000c0fd880020002000bf
:100aa00090fe88001000200060a2880070002000e6
:100ab00070a288001000200080a288007000200032
:100ac00090a288000000eb00a0a288002000200077
:100ad000b0a288000000eb00c0a288002000200027
:100ae000d0a288000000eb00e0a2880020002000d7
:100af000f0a288000000eb0000a388002000200086
:100b000010a388000000eb0020a388001000200044
:100b100030a388000000eb0040a3880010002000f4
:100b200050a388000000eb0060a3880010002000a4
:100b300070a388000000eb0080a388001000200054
:100b400090a3880010002000a0a38800700020005f
:100b5000b0a3880010002000c0a38800700020000f
:100b6000d0a3880000868000c0fa8800108680002c
:100b7000d0fa8800c0002000d0fd880020002000ae
:100b8000a0fe88001000200060aa8800500020000d
:100b900070aa88001000200080aa88005000200061
:100ba00090aa88000000eb00a0aa88000000eb00db
:100bb000b0aa88000000eb00c0aa88000000eb008b
:100bc000d0aa88000000eb00e0aa88000000eb003b
:100bd000f0aa88000000eb0000ab88000000eb00ea
:100be00010ab88000000eb0020ab88003000200034
:100bf00030ab88000000eb0040ab880030002000e4
:100c000050ab88000000eb0060ab88003000200093
:100c100070ab88000000eb0080ab88003000200043
:100c200090ab880010002000a0ab8800500020008e
:100c3000b0ab880010002000c0ab8800500020003e
:100c4000d0ab880000868000e0fa88001086800023
:100c5000f0fa880040012000e0fd8800100020002c
:100c6000b0fe88000000eb0060b288000000eb00de
:100c700070b288000000eb0080b288000000eb003a
:100c800090b288000000eb00a0b288003000200085
:100c9000b0b288000000eb00c0b288003000200035
:100ca000d0b288000000eb00e0b2880020002000f5
:100cb000f0b288000000eb0000b3880020002000a4
:100cc00010b388000000eb0020b388002000200053
:100cd00030b388000000eb0040b388002000200003
:100ce00050b388000000eb0060b3880010002000c3
:100cf00070b388000000eb0080b388001000200073
:100d000090b388000000eb00a0b388001000200022
:100d1000b0b388000000eb00c0b3880010002000d2
:100d2000d0b388000000eb00e0b388000000eb00c7
:100d3000f0b388000000eb0000b488000000eb0076
:100d400010b488000000eb0020b488000000eb0025
:100d500030b488000000eb0040b488000000eb00d5
:100d600050b488000000eb0060b488003000200020
:100d700070b488000000eb0080b4880030002000d0
:100d800090b488000000eb00a0b488002000200090
:100d9000b0b488000000eb00c0b488002000200040
:100da000d0b488000086800000fb88001086800098
:100db00010fb880040012000f0fd8800100020009a
:100dc000c0fe88000000eb0060ba88000000eb0065
:100dd00070ba88000000eb0080ba88000000eb00c9
:100de00090ba88000000eb00a0ba88001000200034
:100df000b0ba88000000eb00c0ba880010002000e4
:100e0000d0ba88000000eb00e0ba88002000200083
:100e1000f0ba88000000eb0000bb88002000200032
:100e200010bb88000000eb0020bb880020002000e1
:100e300030bb88000000eb0040bb88002000200091
:100e400050bb88000000eb0060bb88003000200031
:100e500070bb88000000eb0080bb880030002000e1
:100e600090bb88000000eb00a0bb88003000200091
:100e7000b0bb88000000eb00c0bb88003000200041
:100e8000d0bb88000000eb00e0bb88000000eb0056
:100e9000f0bb88000000eb0000bc88000000eb0005
:100ea00010bc88000000eb0020bc88000000eb00b4
:100eb00030bc88000000eb0040bc88000000eb0064
:100ec00050bc88000000eb0060bc880010002000cf
:100ed00070bc88000000eb0080bc8800100020007f
:100ee00090bc88000000eb00a0bc8800200020001f
:100ef000b0bc88000000eb00c0bc880020002000cf
:100f0000d0bc88000080fa00000006000000fa0053
:100f100010002000108188000080fa000000060008
:100f20000000fa002230ef000080fa000000060006
:100f30000000fa00108180000080fa000000060026
:100f40000000fa0031708000f00320000100700002
:100f500030708800f07180000000a000f0718800ff
:100f600011718000f0ff2a0000806000107188007d
:100f7000f1718000f0fd2f0000806000f0718800aa
:100f8000d1728000f0f32f0000806000d0728800e2
:100f90000080fa00000006000000fa005030ef0068
:100fa0004e30ef004c30ef004a30ef000080fa0086
:100fb000000006000800fa00000f780011079800f2
:100fc00022079800330798001e0090000000e00000
:100fd00003003200e10f500081003200f2003700c0
:100fe0002e009000e30f500003003200e40f500089
:100ff0003e0032007a0037001e007800e20f5000f9
:101000001e003200e20f500005003c000000e0002e
:1010100008003200e10f50000f003200700037006e
:10102000e30f50001e003200e40f50002500320094
:101030006b003700be00900071828800f0ff2b002b
:10104000d08288000080eb00e08288000080eb0006
:10105000f082880024003700be0090007182880072
:10106000f0ff2e00d08288000080eb00e082880034
:101070000080eb00f08288001b003700be0090006b
:1010800071828800f0fd2f00e08288000080eb0074
:10109000d08288000080eb00f082880012003700c8
:1010a000be00900071828800f0fb2f00f082880063
:1010b0000080eb00e08288000080eb00d082880096
:1010c00009003700be00900071828800f0f72f0001
:1010d000f08288000080eb00e08288000080eb0056
:1010e000d0828800000000003d0037001e0078001c
:1010f000e20f50001e003200e20f500005003c00dd
:101100000000e00008003200e10f50000f00320044
:1011100033003700e30f50001e003200e40f500090
:10112000250032002e003700be009000818288002a
:10113000f0ff2b00008388000080eb001083880004
:101140000080eb002083880024003700be00900060
:1011500081828800f0ff2e00008388000080eb0071
:10116000108388000080eb00208388001b0037007c
:10117000be00900081828800f0fd2f00108388005f
:101180000080eb00008388000080eb002083880053
:1011900012003700be00900081828800f0fb2f0013
:1011a000208388000080eb00108388000080eb0023
:1011b0000083880009003700be009000818288000b
:1011c000f0f72f00208388000080eb001083880058
:1011d0000080eb0000838800000000000000000099
:1011e0002e009000e10f500003003200e20f50008b
:1011f000370032006c0037001e007800e20f50000c
:101200001a003200e20f500005003c000000e00030
:101210000a003200e10f50000e0032006200370079
:10122000e40f50001d003200e40f5000150035009f
:10123000e50f50001f0032005b003700be00900039
:101240005182880000012000908288005430ef0015
:101250001e003700be0090005182880080002000f0
:10126000908288005430ef0018003700be009000d4
:101270005182880040002000908288005430ef00a6
:1012800012003700be00900051828800200020002c
:10129000908288005430ef000c003700be009000b0
:1012a0005182880010002000908288005430ef00a6
:1012b00006003700be009000518288001000200018
:1012c000a08288005230ef00000000003600370096
:1012d0001e007800e20f50001a003200e20f5000aa
:1012e00005003c000000e0000a003200e10f500061
:1012f0000e0032002c003700e40f50001d003200b9
:10130000e40f500015003500e50f50001f003200bb
:1013100025003700be009000618288000001200097
:10132000b08288005830ef001e003700be009000e9
:101330006182880080002000b08288005830ef0071
:1013400018003700be009000618288004000200035
:10135000b08288005830ef0012003700be009000c5
:101360006182880020002000b08288005830ef00a1
:101370000c003700be009000618288001000200041
:10138000b08288005830ef0006003700be009000a1
:10139000618288005630ef0010002000c082880073
:1013a00000000000000000000080fa0000000600bd
:1013b0000000fa005630ef005830ef005430ef00d4
:1013c0005230ef000080eb00208388000080eb00ab
:1013d000108388000080eb00008388000080eb0011
:1013e000f08288000080eb00e08288000080eb0043
:1013f000d08288000080fa00000006000400fa0095
:10140000000f7800110798001e0078000000e0002f
:1014100003003200e10f5000c60032007b013700ac
:1014200000818000e10f500059003200e10f5000b0
:1014300003003c000000e0000600320073013700aa
:10144000e20f50007d003200e30f5000b500320083
:101450006e013700008080002080880010808000ae
:10146000308088001e009000e10f500026003200fe
:10147000e10f500003003c000000e00006003200d5
:101480003f003700e20f500011003200e30f500020
:101490002c0032003a00370030808000e40f50000a
:1014a00009003c003080800070808800308080001f
:1014b0000000e80080808800208080006080880034
:1014c0001c30ef002e0037002230ef002c003700d8
:1014d000308080000000e00009003400308080008f
:1014e00070808800308080000000e90080808800e3
:1014f00020808000608088001c30ef0020003700d2
:101500002230ef001e00370020808000e30f5000e3
:101510000a003c00208080007080880020808000cd
:101520000000e800808088003080800060808800b3
:1015300010002000e0808800110037002230ef000a
:101540000f003700208080000000e0000a00340017
:101550002080800070808800208080000000e900ea
:10156000808088003080800060808800100020002b
:10157000e0808800020037002230ef000000000009
:101580003230ef0010002000008188006800370032
:1015900087ff0700e0808000e10f500012003a0052
:1015a0004186800060808000810178001200200068
:1015b000110020007ffe07004186800070808000bf
:1015c00081017800320020008000eb0079fe0700e6
:1015d000808080008001eb00420020008000eb0052
:1015e00074fe070011003700418680006080800093
:1015f00081017800320020008000eb006dfe0700c2
:1016000041868000708080008101780012002000f7
:101610001100200067fe0700808080008001eb0041
:10162000220020001100200062fe0700a206070031
:1016300020002000008188003d00370010002000bd
:10164000308688008506070081382100810f500010
:10165000330034009181800040868000808f5000ec
:1016600013003d001000200020868800e0808000ec
:10167000e10f500005003a00818280002086800042
:101680000080400080828800040037006182800072
:101690002086800000804000608288009181800068
:1016a000208680000080400090818800190037006b
:1016b000408680000000400080007800908180001b
:1016c000808f500011003400e0808000e10f500056
:1016d00005003a0071828000208680000080500062
:1016e00070828800040037005182800020868000cc
:1016f0000080500050828800918180002086800008
:1017000000804000908188000200370030002000f7
:1017100000818800680607001000200020868800ed
:10172000030037002230ef002030ef0000000000ff
:10173000b600370000818000e10f50006c003200dd
:10174000e10f500003003c000000e0000600320002
:10175000ae003700e20f500080003200e30f50006f
:10176000a5003200a900370000808000208088009a
:1017700010808000308088001e009000e50f50002f
:101780001d003200e50f500003003c00e40f500044
:101790000600320051003700e60f500029003200e9
:1017a000e70f50003a0032004c00370020808000e4
:1017b000e40f50000e003c0030808000e30f50002a
:1017c0000b003c002080800070808800308080000a
:1017d00080808800208080000000e80090808800e1
:1017e000308080000000e800a08088003b003700c7
:1017f0002230ef003900370020808000e40f5000d5
:101800000e003c00308080000000e0000b0034003f
:101810002080800070808800308080008080880078
:10182000208080000000e8009080880030808000e8
:101830000000e900a0808800280037002230ef0077
:1018400026003700208080000000e0000e003400f9
:10185000308080000000e0000b0034002080800019
:101860007080880030808000808088002080800028
:101870000000e90090808800308080000000e900ce
:10188000a0808800150037002230ef0013003700d9
:10189000208080000000e0000e00340030808000d6
:1018a000e30f50000b003c00208080007080880017
:1018b0003080800080808800208080000000e90067
:1018c00090808800308080000000e800a0808800c0
:1018d000020037002230ef0000000000f60507008c
:1018e0003230ef00100020000081880046003700f1
:1018f000affe0700b1248400708080008101780071
:10190000320020008000eb00aafd0700b124840013
:1019100080808000810178001200200011002000ea
:10192000a4fd0700908080008001eb0042002000b1
:101930008000eb009ffd0700a08080008001eb008d
:1019400022002000110020009afd0700da050700a0
:1019500020002000008188002b00370010002000ac
:1019600030868800bd05070001e22400810f500089
:101970002400340091818000b0248400808f5000c6
:1019800017003d0010002000208688007182800032
:101990002086800000805000708288008182800054
:1019a0002086800000804000808288005182800074
:1019b0002086800000805000508288006182800074
:1019c0002086800000804000608288009181800035
:1019d000208680000080400090818800020037004f
:1019e0003000200000818800b305070010002000af
:1019f00020868800040037002230ef002030ef00fe
:101a00000100370000000000000000000080fa0024
:101a1000000006000000fa0010002000208188006d
:101a20000080fa00000006000000fa002430ef00f9
:101a30000080fa00000006000000fa00208180000b
:101a40000080fa00000006000200fa00000f780093
:101a50009e007800418088000080fa0000000600a7
:101a60000000fa00408080000080fa0000000600bc
:101a70000000fa00f0808000e10f50001f003200eb
:101a8000e10f500003003c000000e00006003200bf
:101a9000d1003700e20f50001c003200e30f50006d
:101aa000b2003200cc0037003430ef003a30ef00a3
:101ab00081050700a0020700408088004080800068
:101ac000c200dd00c0f4210000804000100078005a
:101ad00000808800408080004200dd008080e800b7
:101ae000c0f42100008040001000780010808800c1
:101af00010002000f0808800b700370003fd0700c9
:101b000020002000f0808800b300370008fd0700a7
:101b10000000e00082003a0010002000f080880001
:101b200041808000a0818000c608dd000080400068
:101b3000c200dd00c02421000080400010007800b9
:101b40000000e00034003200e10f500058003a007d
:101b500041808000a0818000c608dd000080400038
:101b60004200dd008080e800c024210000804000a9
:101b700010007800e50f500011003200e50f500012
:101b800003003c00e40f500006003200480037001c
:101b9000e60f500011003200e70f5000160032002f
:101ba00043003700108080000000e80010808800ab
:101bb000008080000000e8000080880015003700e9
:101bc000008080000000e800008088001080800015
:101bd0000000e900108088000e00370010808000af
:101be0000000e90010808800008080000000e9000b
:101bf0000080880007003700008080000000e900b6
:101c000000808800108080000000e80010808800bc
:101c1000000000002600370041808000a081800085
:101c2000c608dd00008040004200dd008080e80042
:101c3000c02421000080400010007800e10f500017
:101c40000e003200e10f500003003c000000e000f5
:101c50000600320016003700e20f50000b00320081
:101c6000e30f50000d00320011003700108080009b
:101c70000000e800108088000c0037000080800021
:101c80000000e80000808800080037001080800015
:101c90000000e90010808800040037000080800008
:101ca0000000e90000808800000000000000000043
:101cb000a08180000000e800a081880040808000b2
:101cc0008000400040fb2100008040009000780030
:101cd000a0818000808f50003e003a00408080004c
:101ce00080004000e0fc21000080400010007800ef
:101cf0008000e900d0818000808f500003003a000e
:101d000030002000f0808800010037003430ef0000
:101d1000d08180000000e800d08188002e003700cc
:101d200041808000a0818000c608dd000080400066
:101d30004200dd008080e800c024210000804000d7
:101d40009000780042808000a08180004611dd0074
:101d5000000041004201dd00c024210000004100dc
:101d600010007800a5fd07001b00370090fd07005c
:101d7000b1248400408080004201dd00c0f42100d5
:101d8000000041001000780081017800320020003e
:101d90008000eb0087fc0700b124840040808000b5
:101da0004200dd000081e800c0f421000000410095
:101db000100078008101780012002000110020003e
:101dc0007cfc07001e30ef002430ef000000000014
:101dd00001003700000000000080fa00000006004b
:101de0000600fa00f00f2000f070880000f02f00cd
:101df0001071880000718000000f780000f02f0043
:101e0000f0708800f00f2000107188009e007800ac
:101e10000071800000806800000f78000000eb0077
:101e2000100798002600370000718000000f78002e
:101e30001e0078004800dd00000f78000000eb0075
:101e400020079800180037009e0078001000280036
:101e5000008060000000e00004003d000000e90098
:101e6000e1ff2f00008070000000e8008000780093
:101e70001e0090004301dd002e0090000000410094
:101e800000014000800622000000410001087800a7
:101e90001e00780000004000000f78002e00900027
:101ea0000000e800200798002e009000e70f500087
:101eb000e5ff34001e0090000000e80010079800c5
:101ec0001e009000e70f5000d7ff34000000eb0029
:101ed00010079800540037000000eb00200798001e
:101ee0004b0037001e009000c300dd002e00900064
:101ef00000804000800040008006220000804000fa
:101f0000100078000000e0003e0032001e0090004b
:101f1000e60f50003b003c002e009000e60f500002
:101f200038003c001e0090000000e0003500340046
:101f30002e0090000000e000320034001e009000ef
:101f40000000e900c300dd002e009000008040008a
:101f500080004000800622000080400010007800d1
:101f60000000e000270032001e0090000000e800a2
:101f7000c300dd002e009000008040008000400083
:101f80008006220000804000100078000000e00081
:101f90001c0032002e0090000000e9009e0090001e
:101fa000c308dd0000804000800040008006220061
:101fb00000804000100078000000e00011003200b6
:101fc0002e0090000000e8009e009000c308dd0095
:101fd0000080400080004000800622000080400019
:101fe000100078000000e000060032001e009000a3
:101ff0006a00b900800078002e0090000080400048
:102000000f0137002e0090000000e8002007980024
:102010002e009000e70f5000b2ff34001e00900029
:102020000000e800100798001e009000e70f500025
:10203000a9ff340010002000100798002600370088
:102040001e009000c400dd008006220000804000d9
:10205000100078000000e0001c0032001e0090001c
:102060000000e900c400dd0080062200008040007e
:10207000100078000000e000140032001e00900004
:102080000000e800c400dd0080062200008040005f
:10209000100078000000e0000c0032001e009000ec
:1020a0004400dd008080e8008006220000804000bf
:1020b000100078000000e000040032001e009000d4
:1020c0006a00b90000007800dd0037001e009000b3
:1020d0000000e800100798001e009000e60f500076
:1020e000d7ff340010002000100798002a003700a6
:1020f0001e0090004400dd00ee004000800622003b
:1021000000804000100078000000e0001f00320056
:102110001e0090000000e9004400dd00ee004000d9
:102120008006220000804000100078000000e000df
:10213000160032001e0090000000e8004400dd00a0
:10214000ee00400080062200008040001000780071
:102150000000e0000d0032001e0090004400dd0091
:10216000ec00400080062200008040001000780053
:102170000000e000050032001e0090006a00b90077
:102180000000780067004000ad0037001e0090009e
:102190000000e800100798001e009000e60f5000b5
:1021a000d3ff3400100020002007980024003700df
:1021b0002e00900080004000800622000080400039
:1021c000100078000000e0001a0032002e0090009d
:1021d0000000e900800040008006220000804000ee
:1021e000100078000000e000120032002e00900085
:1021f0000000e800800040008006220000804000cf
:10220000100078000000e0000a0032002e0090006c
:1022100068004000800040008006220000804000ee
:10222000100078000000e000020032002e00900054
:10223000830037002e0090000000e800200798007f
:102240002e009000e60f5000d9ff3400100020004f
:1022500020079800280037002e0090008003b0006f
:1022600080004000800622000080400010007800be
:102270000000e0001d0032002e0090000000e90088
:102280008003b000800040008006220000804000f3
:10229000100078000000e000140032002e009000d2
:1022a0000000e8008003b0008000400080062200ab
:1022b00000804000100078000000e0000b003200b9
:1022c0002e0090000003b000800040008006220035
:1022d00000804000100078000000e00003003200a1
:1022e0002e0090006004b000550037002e009000d2
:1022f0000000e800200798002e009000e60f500034
:10230000d5ff3400400381000000e00008003200e7
:10231000c00381000000e00005003200500381008e
:102320000000e000020032000000eb004400370033
:10233000300781000000e000080032002007810023
:102340000000e00005003200b00681000000e0005f
:1023500002003200d004200039003700b0038100b1
:102360000000e00008003200300481000000e000be
:1023700005003200a00381000000e00002003200ee
:10238000700020002e003700c00681000000e00031
:1023900008003200d00681000000e0000500320095
:1023a000400681000000e0000200320060042000ce
:1023b000230037000000eb00100798001c003700d6
:1023c0000000eb0020079800130037001e0090006b
:1023d000c300dd002e00900000804000800040001f
:1023e0008006220000804000100078000000e0001d
:1023f000060032001e0090006a00b90080007800dc
:102400002e009000008040000d0037002e0090004c
:102410000000e800200798002e009000e70f500011
:10242000eaff34001e0090000000e800100798004a
:102430001e009000e70f5000e1ff34001002200062
:102440000080fa00000006000400fa000085800009
:10245000000fe8001e0078004480de00100798009e
:102460009e00780010002800008060000000e0005e
:1024700004003d000000e900e1ff2f000080700033
:102480000000e800e10f500002003a003eeea80014
:10249000010037003eeea9001e007800cf00de00ec
:1024a000008040000080d100000f78009e0078007e
:1024b00010002800008060000000e00004003d00e3
:1024c0000000e900e1ff2f00008070000000e8003c
:1024d000e10f500002003a005b6ea80001003700d7
:1024e0005b6ea9001e007800cf00de000080400077
:1024f0000080d100000f78009e00780010002800b6
:10250000008060000000e00004003d000000e900e1
:10251000e1ff2f00008070000000e800e10f500094
:1025200002003a00220ea80001003700220ea90086
:102530000080fa00000006000000fa00008580001c
:102540000080fa00000006000000fa000000eb0026
:10255000400789000000eb005007890010002000b0
:10256000600789001000200070078900200020000b
:10257000800789002000200090078900300020009b
:10258000a007890030002000b0078900400020002b
:10259000c007890040002000d007890050002000bb
:1025a000e007890050002000f00789004007810003
:1025b000008588000080fa00000006000000fa0094
:1025c000008580000000e800008588000080fa0097
:1025d000000006000000fa00e08480000080fa009d
:1025e000000006000000fa00a9020700411f2000b9
:1025f000810f50001600340090848000a184800078
:1026000061004000e080480090848800a184880038
:10261000408480005184800061004000e0804800d8
:102620004084880051848800708480008184800008
:1026300061004000e0804800708488008184880048
:10264000608480000000e800608488009502070034
:102650000080fa00000006000000fa00b08480004c
:10266000e10f500013003200e10f500003003c0066
:102670000000e0000600320046003700e20f500084
:1026800020003200e30f50002600320041003700e6
:1026900000718000640060000000e000380032003b
:1026a00010002000b08488009230ef009430ef00da
:1026b0003800370092848000a38480004006200008
:1026c00001002000800f5100818f59002e0034003e
:1026d00000718000640060000000e000070032002c
:1026e00020002000b0848800203f2100000001006d
:1026f0009230ef009430ef00260037009630ef0064
:102700002400370000718000640060000000e000d9
:1027100004003a0030002000b08488009230ef00be
:102720009430ef00007180006400600000f0a700aa
:102730000000ea000000e9004f00de00804278005f
:1027400092848000a384800014c0b300803e2000e7
:1027500001002000800f5100818f590001003c00d2
:102760000042eb0004c062000004e00008003200f8
:102770009630ef009230ef009430ef000500370004
:1027800000000000030037000000000001003700d7
:10279000000000000080fa00000006000000fa00bf
:1027a0009cfc07000080fa00000006000000fa0010
:1027b000f08480000000e00003003a005000200098
:1027c000f084880003003700f08480000000e900f6
:1027d000f0848800f0848000008588000080fa0082
:1027e000000006000000fa00f0848000e50f5000b1
:1027f00002003a009e30ef0003003700f0848000b2
:102800000000e800f0848800f084800000858800e3
:102810000080fa00000006000000fa00c08480007a
:10282000e10f500013003200e10f500003003c00a4
:102830000000e0000600320045003700e20f5000c3
:102840001f003200e30f5000250032004000370027
:1028500000718000680060000000e0003700320076
:1028600010002000c08488008830ef008a30ef001c
:1028700037003700428480005384800040062000e7
:1028800001002000800f5100818f59002d0034007d
:1028900000718000680060000000e0000600320067
:1028a00020002000c0848800bcff07008830ef00b3
:1028b0008a30ef00260037009830ef002400370000
:1028c00000718000680060000000e00004003a0031
:1028d00030002000c08488008830ef008a30ef008c
:1028e000007180006800600000f0a7000000ea00ae
:1028f0000000e9004f00de00804278004284800042
:102900005384800014c0b300803e200001002000ea
:10291000800f5100818f590001003c000042eb0004
:1029200004c062000004e000080032009830ef00ac
:102930008830ef008a30ef0005003700000000000b
:102940000300370000000000010037000000000015
:102950000080fa00000006000000fa00d084800029
:10296000e10f500013003200e10f500003003c0063
:102970000000e0000600320045003700e20f500082
:102980001f003200e30f50002500320040003700e6
:1029900000718000700060000000e000370032002d
:1029a00010002000d08488008e30ef009030ef00bf
:1029b0003700370072848000838480004006200046
:1029c00001002000800f5100818f59002d0034003c
:1029d00000718000700060000000e000060032001e
:1029e00020002000d084880070ff07008e30ef00a8
:1029f0009030ef00260037009a30ef0024003700b7
:102a000000718000700060000000e00004003a00e7
:102a100030002000d08488008e30ef009030ef002e
:102a2000007180007000600000f0a7000000ea0064
:102a30000000e9004f00de008042780072848000d0
:102a40008384800014c0b300a00f20000100200088
:102a5000800f5100818f590001003c000042eb00c3
:102a600004c062000004e000080032009a30ef0069
:102a70008e30ef009030ef000500370000000000be
:102a800003003700000000000100370000000000d4
:102a90000080fa00000006000000fa005083800069
:102aa0000080fa00000006000000fa00d0838000d9
:102ab0000080fa00000006000000fa007a30ef0003
:102ac0000080fa00000006000000fa002008a900bb
:102ad0000008a9007100200020210a004008000021
:102ae000c208a9002008a8000080fa000000060023
:102af0000000fa0021e8a90001e8a9007100200007
:102b0000ec210a0046080000c228a90021e8a8001c
:102b10000080fa00000006000000fa002288a900e8
:102b20000288a9007100200020210a004a08000044
:102b3000c248a9002288a8000080fa000000060010
:102b40000200fa00a50107002100200075210a00fb
:102b5000420000004460a90045000700b024840042
:102b600080017800120020001100200020002000c9
:102b700010f90700b02484008001780032002000a2
:102b80008000eb00200020000af90700090107007f
:102b900010010700264ea900266ea900268ea90066
:102ba000284ea800286ea800288ea8000a0ea900aa
:102bb0000a2ea9000a4ea9000a6ea9000a8ea900d1
:102bc000420ea9000c0ea8000c2ea8000c4ea80066
:102bd0000c6ea8000c8ea800440ea8005afe070038
:102be000050107001a0107000000eb00000f780044
:102bf000c6f807004ef7070013fe070079fe07002e
:102c000095fe070004ff070053ff07008afb07003b
:102c10000000e0000200320095fb0700f6ff3700dd
:102c20003170800000fe2f0000806000307088004e
:102c3000f1718000e0ff2f0000806000f0718800db
:102c400011718000000025000100700010718800e3
:102c5000f07180000050a000f0718800d1728000f7
:102c6000000c200001007000d0728800e2ff3700e5
:102c70000000fa00020ea900022ea900024ea900cf
:102c8000026ea900028ea900000ea900002ea90064
:102c9000004ea900006ea900008ea900060ea90032
:102ca000062ea900064ea900066ea900068ea900f0
:102cb0003e0ea9001e0ea9001e2ea9001e4ea80041
:102cc0001e6ea8001e8ea8001eaea9001ecea90072
:102cd0001eeea9001f0ea9001f2ea9001f4ea9005d
:102ce0001f6ea9001f8ea9001faea9001fcea9004c
:102cf0001feea9001c0ea9001c2ea9001c4ea90045
:102d00001c6ea9001ceea9001d0ea9001d2ea90015
:102d100022aea90022cea900234ea900236ea9004d
:102d2000238ea80023aea90023cea80023eea9007d
:102d30003a0ea9003a2ea9003a4ea9003a6ea9000f
:102d40003a8ea9003aaea9003acea9003aeea900ff
:102d50003b0ea9003b2ea9003b4ea9003b6ea900eb
:102d60003b8ea9003baea9003bcea9003beea900db
:102d70003e0ea9003e2ea9003e4ea9003e6ea900bf
:102d80003e8ea9003eaea8003ecea9003eeea900b0
:102d90003f0ea9003f2ea9003f4ea9003f6ea9009b
:102da0003f8ea9003faea9003fcea9003feea9008b
:102db000380ea900382ea900384ea90038eea90017
:102dc000560ea900562ea900564ea900566ea9000f
:102dd000568ea90056aea90056cea90056eea900ff
:102de000570ea900572ea900574ea900576ea900eb
:102df000578ea90057aea90057cea90057eea900db
:102e00005a0ea9005a2ea9005a4ea9005a6ea900be
:102e10005a8ea9005aaea9005acea8005aeea800b0
:102e20005b0ea9005b2ea9005b4ea9005b6ea9009a
:102e30005b8ea9005baea9005bcea9005beea9008a
:082e40000080fa00000006000a
:020000040000fa
:102e48006610000022000000800000003c10000016
:102e58002a00000080000000d210000002000000dc
:102e68008200000032000000242100003000000031
:102e780080000000d4100000140f00008000000043
:102e8800001000003c00000080000000be100000a0
:102e98000c00000082000000030002000002000095
:102ea8000100010000320000e81f0000800000005f
:102eb8008200000000000000400000000040000008
:102ec800000040000000c00040000000004000007a
:102ed80000204100000000004000000060410000a8
:102ee80000c040000000000040000000c04000009a
:102ef80000c040000000c000400000002041000069
:102f080000c04000000060004100000020410000b7
:102f1800000040000000200041000000c040000008
:102f28000020410000002000410000002041000076
:102f38000060410000006000410000000040000007
:102f4800006041000000c000400000006041000037
:102f580000204100000060004100000060410000c6
:102f6800682000008000000080000000a41000001d
:102f78001a00000080000000ca10000008000000cd
:102f880082000000000080003f000000803f000039
:102f9800e82000003c0000008000000088100000cd
:0c2fa8001c000000800000000000000081
:020000040000fa
:102fb4000000fa00c3e8a8000080fa000000060040
:102fc4000000fa00c3e8a9000080fa00000006002f
:102fd4000000fa00c1e8a9006100200064210a0091
:102fe400400800000028a9002028a8000080fa005a
:102ff400000006000000fa000021ef000421ef00a9
:1030040020032000400888008000eb0054210a00bf
:10301400000100003100200098210a000001000096
:1030240001e1a8000080fa00000006000000fa0098
:1030340001e1a9000080fa00000006000000fa0087
:1030440001e1a8000080fa00000006000000fa0078
:103054000080fa00000006000000fa00e081800011
:10306400f18180000080fa00000006000000fa00f0
:10307400e0818000f1818000823e20000300200076
:1030840017f607000080fa00000006000000fa00ae
:1030940000828000118280000080fa000000060097
:1030a4000000fa004030ef004230ef000080fa00e8
:1030b400000006000000fa003c30ef003e30ef0054
:1030c4000080fa00000006000000fa000aeba800e5
:1030d40000eca800f1002000b8210a00020c000056
:1030e40001eba80001003700234ea8000160800016
:1030f40000002800008060000000e000faff3200b9
:10310400234ea9000aeba8000b2ca8000b0ca80066
:103114000000000051608000000028000080600072
:103124000000e000fbff32000b2ca9000080fa0035
:10313400000006000000fa0001eba90021002000b5
:10314400fe210a000a0b00008000eb00d8210a00cf
:103154000a0b00008000eb00fd210a00080b0000b0
:103164003100200065210a00020b000002eba900d7
:10317400100ba900104ba900108ba90010cba900bb
:10318400110ba900a100200090210a00060b0000e9
:10319400cdff0700200ba800202ba800204ba8007f
:1031a400206ba800208ba8000b68a9002b68a8003e
:1031b4000b88a9002b88a8000ba8a9002ba8a8009d
:1031c4000bc8a9002bc8a8000be8a9002be8a8008d
:1031d4000080fa00000006000000fa001100200040
:1031e40050210a00860f000041062000b0210a0089
:1031f400880f00002100200064210a008a0f0000cb
:103204001100200020210a008a0f00001200200073
:1032140080072000a109200053f82000804978008d
:103224008149780082497800207c80000001780080
:103234000200a000600420007105200043f8200073
:1032440080497800814978008249780000000000b4
:10325400207c8000610060000000e000fcff3a0078
:103264000080fa00000006000000fa00a000200020
:10327400a01f8800f023ef00ee23ef00f023ef00ff
:1032840000802000701e880080002000601e8800de
:10329400c0002000a01e880080002000b01e88000e
:1032a40010302600701e880080002000601e8800f8
:1032b400c0002000a01e880050052000b0468800f1
:1032c400a00a2000b0468800016da900cde3a80043
:0832d4000080fa000000060072
:020000040000fa
:020000040001f9
:045e300078ffff00f8
:020000040000fa
:020000040001f9
:045e38007fffff00e9
:020000040000fa
:020000040001f9
:045e5000deffff0072
:020000040000fa
:020000040001f9
:045f0800ffffff0098
:00000001FF
